{
  "contractName": "ChickenStore",
  "abi": [
    {
      "constant": true,
      "inputs": [],
      "name": "numberOfSeller",
      "outputs": [
        {
          "name": "",
          "type": "uint256"
        }
      ],
      "payable": false,
      "stateMutability": "view",
      "type": "function"
    },
    {
      "constant": false,
      "inputs": [
        {
          "name": "_name",
          "type": "string"
        },
        {
          "name": "_imageLink",
          "type": "string"
        },
        {
          "name": "_service",
          "type": "string"
        },
        {
          "name": "_price",
          "type": "uint256"
        },
        {
          "name": "_travelFare",
          "type": "uint256"
        }
      ],
      "name": "launch",
      "outputs": [],
      "payable": false,
      "stateMutability": "nonpayable",
      "type": "function"
    },
    {
      "constant": true,
      "inputs": [
        {
          "name": "num",
          "type": "uint256"
        }
      ],
      "name": "getChickenInformation",
      "outputs": [
        {
          "name": "",
          "type": "bool"
        },
        {
          "name": "",
          "type": "address"
        },
        {
          "name": "",
          "type": "string"
        },
        {
          "name": "",
          "type": "string"
        },
        {
          "name": "",
          "type": "string"
        },
        {
          "name": "",
          "type": "uint256"
        },
        {
          "name": "",
          "type": "uint256"
        }
      ],
      "payable": false,
      "stateMutability": "view",
      "type": "function"
    },
    {
      "constant": false,
      "inputs": [
        {
          "name": "addr",
          "type": "address"
        }
      ],
      "name": "buyChicken",
      "outputs": [],
      "payable": true,
      "stateMutability": "payable",
      "type": "function"
    },
    {
      "constant": true,
      "inputs": [],
      "name": "getRequest",
      "outputs": [
        {
          "name": "",
          "type": "address"
        }
      ],
      "payable": false,
      "stateMutability": "view",
      "type": "function"
    },
    {
      "constant": false,
      "inputs": [
        {
          "name": "addr",
          "type": "address"
        }
      ],
      "name": "transactionSuccess",
      "outputs": [],
      "payable": false,
      "stateMutability": "nonpayable",
      "type": "function"
    },
    {
      "constant": false,
      "inputs": [
        {
          "name": "addr",
          "type": "address"
        }
      ],
      "name": "transactionFail",
      "outputs": [],
      "payable": false,
      "stateMutability": "nonpayable",
      "type": "function"
    },
    {
      "constant": false,
      "inputs": [
        {
          "name": "addr",
          "type": "address"
        },
        {
          "name": "evaluation",
          "type": "uint256"
        }
      ],
      "name": "evaluate",
      "outputs": [],
      "payable": false,
      "stateMutability": "nonpayable",
      "type": "function"
    },
    {
      "constant": true,
      "inputs": [
        {
          "name": "addr",
          "type": "address"
        }
      ],
      "name": "showEvaluation",
      "outputs": [
        {
          "name": "",
          "type": "uint256[]"
        }
      ],
      "payable": false,
      "stateMutability": "view",
      "type": "function"
    }
  ],
  "bytecode": "0x60806040526000805534801561001457600080fd5b5061236b806100246000396000f3fe608060405260043610610099576000357c0100000000000000000000000000000000000000000000000000000000900463ffffffff16806319115e1a1461009e57806335b6953f146102765780637948c850146102a157806388b7695d146102fc578063b0b44fc814610340578063c2bb515f1461054a578063cc13d1bf146105a1578063cd432aae146105f2578063fa623fa014610643575b600080fd5b3480156100aa57600080fd5b506100d7600480360360208110156100c157600080fd5b81019080803590602001909291905050506106e9565b60405180881515151581526020018773ffffffffffffffffffffffffffffffffffffffff1673ffffffffffffffffffffffffffffffffffffffff168152602001806020018060200180602001868152602001858152602001848103845289818151815260200191508051906020019080838360005b8381101561016757808201518184015260208101905061014c565b50505050905090810190601f1680156101945780820380516001836020036101000a031916815260200191505b50848103835288818151815260200191508051906020019080838360005b838110156101cd5780820151818401526020810190506101b2565b50505050905090810190601f1680156101fa5780820380516001836020036101000a031916815260200191505b50848103825287818151815260200191508051906020019080838360005b83811015610233578082015181840152602081019050610218565b50505050905090810190601f1680156102605780820380516001836020036101000a031916815260200191505b509a505050505050505050505060405180910390f35b34801561028257600080fd5b5061028b610a69565b6040518082815260200191505060405180910390f35b3480156102ad57600080fd5b506102fa600480360360408110156102c457600080fd5b81019080803573ffffffffffffffffffffffffffffffffffffffff16906020019092919080359060200190929190505050610a6f565b005b61033e6004803603602081101561031257600080fd5b81019080803573ffffffffffffffffffffffffffffffffffffffff169060200190929190505050610d8b565b005b34801561034c57600080fd5b50610548600480360360a081101561036357600080fd5b810190808035906020019064010000000081111561038057600080fd5b82018360208201111561039257600080fd5b803590602001918460018302840111640100000000831117156103b457600080fd5b91908080601f016020809104026020016040519081016040528093929190818152602001838380828437600081840152601f19601f8201169050808301925050505050505091929192908035906020019064010000000081111561041757600080fd5b82018360208201111561042957600080fd5b8035906020019184600183028401116401000000008311171561044b57600080fd5b91908080601f016020809104026020016040519081016040528093929190818152602001838380828437600081840152601f19601f820116905080830192505050505050509192919290803590602001906401000000008111156104ae57600080fd5b8201836020820111156104c057600080fd5b803590602001918460018302840111640100000000831117156104e257600080fd5b91908080601f016020809104026020016040519081016040528093929190818152602001838380828437600081840152601f19601f8201169050808301925050505050505091929192908035906020019092919080359060200190929190505050610fbd565b005b34801561055657600080fd5b5061055f6112f8565b604051808273ffffffffffffffffffffffffffffffffffffffff1673ffffffffffffffffffffffffffffffffffffffff16815260200191505060405180910390f35b3480156105ad57600080fd5b506105f0600480360360208110156105c457600080fd5b81019080803573ffffffffffffffffffffffffffffffffffffffff169060200190929190505050611534565b005b3480156105fe57600080fd5b506106416004803603602081101561061557600080fd5b81019080803573ffffffffffffffffffffffffffffffffffffffff1690602001909291905050506119aa565b005b34801561064f57600080fd5b506106926004803603602081101561066657600080fd5b81019080803573ffffffffffffffffffffffffffffffffffffffff16906020019092919050505061201d565b6040518080602001828103825283818151815260200191508051906020019060200280838360005b838110156106d55780820151818401526020810190506106ba565b505050509050019250505060405180910390f35b60008060608060606000806000600260008a815260200190815260200160002060009054906101000a900473ffffffffffffffffffffffffffffffffffffffff1690506000600360008373ffffffffffffffffffffffffffffffffffffffff1673ffffffffffffffffffffffffffffffffffffffff16815260200190815260200160002060000160019054906101000a900460ff16905061078861224d565b600160008473ffffffffffffffffffffffffffffffffffffffff1673ffffffffffffffffffffffffffffffffffffffff16815260200190815260200160002060c060405190810160405290816000820160009054906101000a900473ffffffffffffffffffffffffffffffffffffffff1673ffffffffffffffffffffffffffffffffffffffff1673ffffffffffffffffffffffffffffffffffffffff168152602001600182018054600181600116156101000203166002900480601f0160208091040260200160405190810160405280929190818152602001828054600181600116156101000203166002900480156108c25780601f10610897576101008083540402835291602001916108c2565b820191906000526020600020905b8154815290600101906020018083116108a557829003601f168201915b50505050508152602001600282018054600181600116156101000203166002900480601f0160208091040260200160405190810160405280929190818152602001828054600181600116156101000203166002900480156109645780601f1061093957610100808354040283529160200191610964565b820191906000526020600020905b81548152906001019060200180831161094757829003601f168201915b50505050508152602001600382018054600181600116156101000203166002900480601f016020809104026020016040519081016040528092919081815260200182805460018160011615610100020316600290048015610a065780601f106109db57610100808354040283529160200191610a06565b820191906000526020600020905b8154815290600101906020018083116109e957829003601f168201915b5050505050815260200160048201548152602001600582015481525050905081816000015182602001518360400151846060015185608001518660a001518494508393508292509950995099509950995099509950505050919395979092949650565b60005481565b818073ffffffffffffffffffffffffffffffffffffffff16600360003373ffffffffffffffffffffffffffffffffffffffff1673ffffffffffffffffffffffffffffffffffffffff16815260200190815260200160002060000160039054906101000a900473ffffffffffffffffffffffffffffffffffffffff1673ffffffffffffffffffffffffffffffffffffffff161480610b995750600360008273ffffffffffffffffffffffffffffffffffffffff1673ffffffffffffffffffffffffffffffffffffffff16815260200190815260200160002060000160039054906101000a900473ffffffffffffffffffffffffffffffffffffffff1673ffffffffffffffffffffffffffffffffffffffff163373ffffffffffffffffffffffffffffffffffffffff16145b1515610ba457600080fd5b60018210158015610bb6575060058211155b1515610bc157600080fd5b60011515600360008573ffffffffffffffffffffffffffffffffffffffff1673ffffffffffffffffffffffffffffffffffffffff16815260200190815260200160002060000160179054906101000a900460ff161515148015610c77575060011515600360008573ffffffffffffffffffffffffffffffffffffffff1673ffffffffffffffffffffffffffffffffffffffff16815260200190815260200160002060000160189054906101000a900460ff161515145b1515610d11576040517f08c379a00000000000000000000000000000000000000000000000000000000081526004018080602001828103825260228152602001807f436f6d706c65746520796f7572207472616e73616374696f6e2c20706c65617381526020017f652e00000000000000000000000000000000000000000000000000000000000081525060400191505060405180910390fd5b600360008473ffffffffffffffffffffffffffffffffffffffff1673ffffffffffffffffffffffffffffffffffffffff168152602001908152602001600020600101829080600181540180825580915050906001820390600052602060002001600090919290919091505550610d86836120b7565b505050565b8073ffffffffffffffffffffffffffffffffffffffff163373ffffffffffffffffffffffffffffffffffffffff1614151515610dc657600080fd5b670de0b6b3a7640000600160008373ffffffffffffffffffffffffffffffffffffffff1673ffffffffffffffffffffffffffffffffffffffff16815260200190815260200160002060040154023410151515610e2157600080fd5b60011515600360008373ffffffffffffffffffffffffffffffffffffffff1673ffffffffffffffffffffffffffffffffffffffff16815260200190815260200160002060000160019054906101000a900460ff161515141515610e8357600080fd5b33600360008373ffffffffffffffffffffffffffffffffffffffff1673ffffffffffffffffffffffffffffffffffffffff16815260200190815260200160002060000160036101000a81548173ffffffffffffffffffffffffffffffffffffffff021916908373ffffffffffffffffffffffffffffffffffffffff1602179055506000600360008373ffffffffffffffffffffffffffffffffffffffff1673ffffffffffffffffffffffffffffffffffffffff16815260200190815260200160002060000160016101000a81548160ff0219169083151502179055506001600360008373ffffffffffffffffffffffffffffffffffffffff1673ffffffffffffffffffffffffffffffffffffffff16815260200190815260200160002060000160026101000a81548160ff02191690831515021790555050565b60001515600360003373ffffffffffffffffffffffffffffffffffffffff1673ffffffffffffffffffffffffffffffffffffffff16815260200190815260200160002060000160029054906101000a900460ff16151514151561101f57600080fd5b808211151561102d57600080fd5b611036336120b7565b60001515600360003373ffffffffffffffffffffffffffffffffffffffff1673ffffffffffffffffffffffffffffffffffffffff16815260200190815260200160002060000160009054906101000a900460ff161515141561115257600080815480929190600101919050555033600260008054815260200190815260200160002060006101000a81548173ffffffffffffffffffffffffffffffffffffffff021916908373ffffffffffffffffffffffffffffffffffffffff1602179055506001600360003373ffffffffffffffffffffffffffffffffffffffff1673ffffffffffffffffffffffffffffffffffffffff16815260200190815260200160002060000160006101000a81548160ff0219169083151502179055505b61115a61224d565b60c0604051908101604052803373ffffffffffffffffffffffffffffffffffffffff16815260200187815260200186815260200185815260200184815260200183815250905080600160003373ffffffffffffffffffffffffffffffffffffffff1673ffffffffffffffffffffffffffffffffffffffff16815260200190815260200160002060008201518160000160006101000a81548173ffffffffffffffffffffffffffffffffffffffff021916908373ffffffffffffffffffffffffffffffffffffffff160217905550602082015181600101908051906020019061124392919061229a565b50604082015181600201908051906020019061126092919061229a565b50606082015181600301908051906020019061127d92919061229a565b506080820151816004015560a082015181600501559050506001600360003373ffffffffffffffffffffffffffffffffffffffff1673ffffffffffffffffffffffffffffffffffffffff16815260200190815260200160002060000160016101000a81548160ff021916908315150217905550505050505050565b600060011515600360003373ffffffffffffffffffffffffffffffffffffffff1673ffffffffffffffffffffffffffffffffffffffff16815260200190815260200160002060000160009054906101000a900460ff1615151415156113c5576040517f08c379a00000000000000000000000000000000000000000000000000000000081526004018080602001828103825260138152602001807f596f7520617265206e6f742073656c6c6572210000000000000000000000000081525060200191505060405180910390fd5b600073ffffffffffffffffffffffffffffffffffffffff16600360003373ffffffffffffffffffffffffffffffffffffffff1673ffffffffffffffffffffffffffffffffffffffff16815260200190815260200160002060000160039054906101000a900473ffffffffffffffffffffffffffffffffffffffff1673ffffffffffffffffffffffffffffffffffffffff16141515156114cc576040517f08c379a000000000000000000000000000000000000000000000000000000000815260040180806020018281038252600c8152602001807f4e6f206e657720636173652e000000000000000000000000000000000000000081525060200191505060405180910390fd5b600360003373ffffffffffffffffffffffffffffffffffffffff1673ffffffffffffffffffffffffffffffffffffffff16815260200190815260200160002060000160039054906101000a900473ffffffffffffffffffffffffffffffffffffffff16905090565b808073ffffffffffffffffffffffffffffffffffffffff16600360003373ffffffffffffffffffffffffffffffffffffffff1673ffffffffffffffffffffffffffffffffffffffff16815260200190815260200160002060000160039054906101000a900473ffffffffffffffffffffffffffffffffffffffff1673ffffffffffffffffffffffffffffffffffffffff16148061165e5750600360008273ffffffffffffffffffffffffffffffffffffffff1673ffffffffffffffffffffffffffffffffffffffff16815260200190815260200160002060000160039054906101000a900473ffffffffffffffffffffffffffffffffffffffff1673ffffffffffffffffffffffffffffffffffffffff163373ffffffffffffffffffffffffffffffffffffffff16145b151561166957600080fd5b8173ffffffffffffffffffffffffffffffffffffffff16600360003373ffffffffffffffffffffffffffffffffffffffff1673ffffffffffffffffffffffffffffffffffffffff16815260200190815260200160002060000160039054906101000a900473ffffffffffffffffffffffffffffffffffffffff1673ffffffffffffffffffffffffffffffffffffffff16141561179c578173ffffffffffffffffffffffffffffffffffffffff166108fc670de0b6b3a7640000600160003373ffffffffffffffffffffffffffffffffffffffff1673ffffffffffffffffffffffffffffffffffffffff16815260200190815260200160002060040154029081150290604051600060405180830381858888f19350505050158015611791573d6000803e3d6000fd5b5061179b336120b7565b5b600360008373ffffffffffffffffffffffffffffffffffffffff1673ffffffffffffffffffffffffffffffffffffffff16815260200190815260200160002060000160039054906101000a900473ffffffffffffffffffffffffffffffffffffffff1673ffffffffffffffffffffffffffffffffffffffff163373ffffffffffffffffffffffffffffffffffffffff1614156119a6573373ffffffffffffffffffffffffffffffffffffffff166108fc670de0b6b3a7640000600160008673ffffffffffffffffffffffffffffffffffffffff1673ffffffffffffffffffffffffffffffffffffffff16815260200190815260200160002060050154600160008773ffffffffffffffffffffffffffffffffffffffff1673ffffffffffffffffffffffffffffffffffffffff1681526020019081526020016000206004015403029081150290604051600060405180830381858888f19350505050158015611908573d6000803e3d6000fd5b508173ffffffffffffffffffffffffffffffffffffffff166108fc670de0b6b3a7640000600160008673ffffffffffffffffffffffffffffffffffffffff1673ffffffffffffffffffffffffffffffffffffffff16815260200190815260200160002060050154029081150290604051600060405180830381858888f1935050505015801561199b573d6000803e3d6000fd5b506119a5826120b7565b5b5050565b808073ffffffffffffffffffffffffffffffffffffffff16600360003373ffffffffffffffffffffffffffffffffffffffff1673ffffffffffffffffffffffffffffffffffffffff16815260200190815260200160002060000160039054906101000a900473ffffffffffffffffffffffffffffffffffffffff1673ffffffffffffffffffffffffffffffffffffffff161480611ad45750600360008273ffffffffffffffffffffffffffffffffffffffff1673ffffffffffffffffffffffffffffffffffffffff16815260200190815260200160002060000160039054906101000a900473ffffffffffffffffffffffffffffffffffffffff1673ffffffffffffffffffffffffffffffffffffffff163373ffffffffffffffffffffffffffffffffffffffff16145b1515611adf57600080fd5b60011515600360003373ffffffffffffffffffffffffffffffffffffffff1673ffffffffffffffffffffffffffffffffffffffff16815260200190815260200160002060000160029054906101000a900460ff1615151480611b94575060011515600360008473ffffffffffffffffffffffffffffffffffffffff1673ffffffffffffffffffffffffffffffffffffffff16815260200190815260200160002060000160029054906101000a900460ff161515145b1515611b9f57600080fd5b8173ffffffffffffffffffffffffffffffffffffffff16600360003373ffffffffffffffffffffffffffffffffffffffff1673ffffffffffffffffffffffffffffffffffffffff16815260200190815260200160002060000160039054906101000a900473ffffffffffffffffffffffffffffffffffffffff1673ffffffffffffffffffffffffffffffffffffffff161415611ddc576001600360003373ffffffffffffffffffffffffffffffffffffffff1673ffffffffffffffffffffffffffffffffffffffff16815260200190815260200160002060000160176101000a81548160ff02191690831515021790555060011515600360003373ffffffffffffffffffffffffffffffffffffffff1673ffffffffffffffffffffffffffffffffffffffff16815260200190815260200160002060000160189054906101000a900460ff1615151415611ddb573373ffffffffffffffffffffffffffffffffffffffff166108fc670de0b6b3a7640000600160003373ffffffffffffffffffffffffffffffffffffffff1673ffffffffffffffffffffffffffffffffffffffff16815260200190815260200160002060040154029081150290604051600060405180830381858888f19350505050158015611d7e573d6000803e3d6000fd5b506000600360003373ffffffffffffffffffffffffffffffffffffffff1673ffffffffffffffffffffffffffffffffffffffff16815260200190815260200160002060000160026101000a81548160ff0219169083151502179055505b5b600360008373ffffffffffffffffffffffffffffffffffffffff1673ffffffffffffffffffffffffffffffffffffffff16815260200190815260200160002060000160039054906101000a900473ffffffffffffffffffffffffffffffffffffffff1673ffffffffffffffffffffffffffffffffffffffff163373ffffffffffffffffffffffffffffffffffffffff161415612019576001600360008473ffffffffffffffffffffffffffffffffffffffff1673ffffffffffffffffffffffffffffffffffffffff16815260200190815260200160002060000160186101000a81548160ff02191690831515021790555060011515600360008473ffffffffffffffffffffffffffffffffffffffff1673ffffffffffffffffffffffffffffffffffffffff16815260200190815260200160002060000160179054906101000a900460ff1615151415612018578173ffffffffffffffffffffffffffffffffffffffff166108fc670de0b6b3a7640000600160008673ffffffffffffffffffffffffffffffffffffffff1673ffffffffffffffffffffffffffffffffffffffff16815260200190815260200160002060040154029081150290604051600060405180830381858888f19350505050158015611fbb573d6000803e3d6000fd5b506000600360008473ffffffffffffffffffffffffffffffffffffffff1673ffffffffffffffffffffffffffffffffffffffff16815260200190815260200160002060000160026101000a81548160ff0219169083151502179055505b5b5050565b6060600360008373ffffffffffffffffffffffffffffffffffffffff1673ffffffffffffffffffffffffffffffffffffffff1681526020019081526020016000206001018054806020026020016040519081016040528092919081815260200182805480156120ab57602002820191906000526020600020905b815481526020019060010190808311612097575b50505050509050919050565b6000600360008373ffffffffffffffffffffffffffffffffffffffff1673ffffffffffffffffffffffffffffffffffffffff16815260200190815260200160002060000160026101000a81548160ff0219169083151502179055506000600360008373ffffffffffffffffffffffffffffffffffffffff1673ffffffffffffffffffffffffffffffffffffffff16815260200190815260200160002060000160036101000a81548173ffffffffffffffffffffffffffffffffffffffff021916908373ffffffffffffffffffffffffffffffffffffffff1602179055506000600360008373ffffffffffffffffffffffffffffffffffffffff1673ffffffffffffffffffffffffffffffffffffffff16815260200190815260200160002060000160176101000a81548160ff0219169083151502179055506000600360008373ffffffffffffffffffffffffffffffffffffffff1673ffffffffffffffffffffffffffffffffffffffff16815260200190815260200160002060000160186101000a81548160ff02191690831515021790555050565b60c060405190810160405280600073ffffffffffffffffffffffffffffffffffffffff16815260200160608152602001606081526020016060815260200160008152602001600081525090565b828054600181600116156101000203166002900490600052602060002090601f016020900481019282601f106122db57805160ff1916838001178555612309565b82800160010185558215612309579182015b828111156123085782518255916020019190600101906122ed565b5b509050612316919061231a565b5090565b61233c91905b80821115612338576000816000905550600101612320565b5090565b9056fea165627a7a7230582015a6b5eb7193f6566984a718cc489b226108860377970e7cb3f8185eb01381470029",
  "source": "//Version6_20190521\npragma solidity ^0.5.0;\n\ncontract ChickenStore {\n    \n    //Store Management\n    uint public numberOfSeller = 0; \n    mapping(address => chicken) store;\n    mapping(uint => address) account;\n    mapping(address => information) accountInformation;\n\n    struct chicken {\n        address seller;\n        string name;\n        string imageLink;\n        string service;\n        uint price;\n        uint travelFare;\n    }\n    \n    struct information {\n        bool registered;\n        bool tradable;\n        bool inTransaction;\n        address buyer;\n        bool sellerSuccess;\n        bool buyerSuccess;\n        uint[] evaluation;\n    }\n    \n    modifier participants(address addr) {\n        require(accountInformation[msg.sender].buyer == addr || msg.sender == accountInformation[addr].buyer);\n        _;\n    }\n    \n    function paymentInitialize(address addr) internal {\n        accountInformation[addr].inTransaction = false;\n        accountInformation[addr].buyer = address(0);\n        accountInformation[addr].sellerSuccess = false;\n        accountInformation[addr].buyerSuccess = false;\n    }\n    \n    function launch(string memory _name, string memory _imageLink, string memory _service, uint _price, uint _travelFare) public {\n        require(accountInformation[msg.sender].inTransaction == false);\n        require(_price > _travelFare);\n        paymentInitialize(msg.sender);\n        //Register(Record) automatically\n\t\tif(accountInformation[msg.sender].registered == false ) {\n\t\t    numberOfSeller++;\n\t\t    account[numberOfSeller] = msg.sender;\n\t\t    accountInformation[msg.sender].registered = true;\n\t\t}\n\t\t//Launch\n\t\tchicken memory _newChicken = chicken(msg.sender, _name, _imageLink, _service, _price, _travelFare);\n\t\tstore[msg.sender] = _newChicken;\n\t\taccountInformation[msg.sender].tradable = true;\n\t}\n\t\n\tfunction getChickenInformation(uint num) public view returns (bool, address, string memory, string memory, string memory, uint, uint) {\n        address addr = account[num];\n        bool _tradable = accountInformation[addr].tradable;\n        chicken memory _chicken = store[addr];\n        return (_tradable, _chicken.seller, _chicken.name, _chicken.imageLink, _chicken.service, _chicken.price, _chicken.travelFare);\n    }\n    \n    function buyChicken(address payable addr) public payable {\n        require(msg.sender != addr);\n        require(msg.value >= store[addr].price*(10**18));\n        require(accountInformation[addr].tradable == true);\n        accountInformation[addr].buyer = msg.sender;\n        accountInformation[addr].tradable = false;\n        accountInformation[addr].inTransaction = true;\n    }\n   \n    function getRequest() public view returns (address) {\n        require(accountInformation[msg.sender].registered == true, \"You are not seller!\");\n        require(accountInformation[msg.sender].buyer != address(0), \"No new case.\");\n        return accountInformation[msg.sender].buyer;\n    }\n    \n    function transactionSuccess(address payable addr) public participants(addr) {\n        require(accountInformation[msg.sender].inTransaction == true || accountInformation[addr].inTransaction == true);\n        //Seller fail\n        if(accountInformation[msg.sender].buyer == addr) {\n            accountInformation[msg.sender].sellerSuccess = true;\n            if(accountInformation[msg.sender].buyerSuccess == true) {\n                msg.sender.transfer(store[msg.sender].price*(10**18));\n                accountInformation[msg.sender].inTransaction =false;\n            }\n        }\n        //Buyer fail\n        if(msg.sender == accountInformation[addr].buyer) {\n            accountInformation[addr].buyerSuccess = true;\n            if(accountInformation[addr].sellerSuccess == true) {\n                addr.transfer(store[addr].price*(10**18));\n                accountInformation[addr].inTransaction = false;\n            }\n        }\n    }\n    \n    function transactionFail(address payable addr) public participants(addr) {\n        //Seller fail\n        if(accountInformation[msg.sender].buyer == addr) {\n            addr.transfer(store[msg.sender].price*(10**18));\n            paymentInitialize(msg.sender);\n        }\n        //Buyer fail\n        if(msg.sender == accountInformation[addr].buyer) {\n            msg.sender.transfer((store[addr].price-store[addr].travelFare)*(10**18));\n            addr.transfer(store[addr].travelFare*(10**18));\n            paymentInitialize(addr);\n        }\n    }\n    \n    function evaluate(address addr, uint evaluation) public participants(addr) {\n        require(evaluation>=1 && evaluation<=5);\n        require(accountInformation[addr].sellerSuccess == true && accountInformation[addr].buyerSuccess == true, \"Complete your transaction, please.\");\n        accountInformation[addr].evaluation.push(evaluation);\n        paymentInitialize(addr);\n    }\n    \n    function showEvaluation(address addr) public view returns (uint[] memory){\n        return accountInformation[addr].evaluation;\n    }\n    \n}",
  "sourcePath": "/Users/kehonglin/Desktop/Alone3/Alone-2/contracts/ChickenStore.sol",
  "compiler": {
    "name": "solc",
    "version": "0.5.0+commit.1d4f565a.Emscripten.clang"
  },
  "schemaVersion": "3.0.9",
  "updatedAt": "2019-05-22T07:04:53.629Z",
  "devdoc": {
    "methods": {}
  },
  "userdoc": {
    "methods": {}
  }
}